:020020007B0063
:10000000000001130D2F0328FE2C82011D38123031
:16002400022F800B1930002F80030012022F0B28001715301130FC
:020022000931A2
:20003A00782F8301852F8B010002982F501D000000000000501F0000000000000000000096
:20005A00000000000000501D000000000000501F0000000000000000000063002330982F2D
:20007A00000000000000000000000000000000000000000063003D307A00132F501D00006D
:20009A0000000000501F0000000000000000000063004B30132F00000000000000000000B7
:2000BA0000000000000000000000630058307A00132F501D000000000000501F00000000A3
:2000DA0000000000000063006630392F0000000000000000000000000000000000000000A5
:2000FA00630073307A002238820F840B0513840F012C002B8A3065388B304A380415051225
:20011A00850F082940188430820FFF2E860B0713860F012C002B9B3065389C304A380615CD
:20013A000712870F082940189530830F860B0813860F012C002BAB306538AC304A3806158C
:20015A000812880F08294018A530830FFF2E890B0A13890F012C002BBC306538BD304A381E
:20017A0009150A128A0F08294018B6304A307A00982F501D000000000000501F000000008C
:20019A00000000000000000000000000501D000000000000501F0000000000000000000069
:2001BA006300C6304C2F00000000000000000000000000000000000000006300E030132F9C
:2001DA00501D000000000000501F000000000000000000006300ED307A008B0F8D0B8C0F62
:2001FA008E0B8E0F800B8D0F8D128E10800E002B08310000FE307A00202F9001202F9101F0
:20021A00FF2F9201D92F8D01002F8E017600D001012C002A2D31042F820B082F830B803876
:20023A00A02F8B0B0F2F8C0BFA38D001012C002A2D31C538A02F8B0B0F2F8C0BFA382231F6
:20025A00D001082C002A4531042F820B03138038A02F8B0B0F2F8C0BFA38D001082C002AB6
:20027A004531C538A02F8B0B0F2F8C0BFA383A31D001102C002A5E31042F820B012F830BD6
:20029A008038A02F8B0B0F2F8C0BFA38D001102C002A5E31C538A02F8B0B0F2F8C0BFA38F1
:2002BA005331D001402C002A7731042F820B022F830B8038A02F8B0B0F2F8C0BFA38D0011D
:2002DA00402C002A7731C538A02F8B0B0F2F8C0BFA386C31D001802C002A1331042F820B15
:2002FA00032F830B8038A02F8B0B0F2F8C0BFA38D001802C002A1331C538A02F8B0B0F2F75
:08031A008C0BFA3885317A00E2
:00000001FF
