:020020007B0063
:1000000000000113022F0D28FE2C82011D38123032
:16002400022F800B022F0C2880171C30002F800300121430113079
:0200220021308B
:20003A00302F830100027A00002F9201002F9101002F9001021303130413840F6A006A005B
:20005A006A000013850B800F860B820F050C870B830F060D880B812F070C800B802F080DDB
:20007A007538890B840F8A0B0B138A0F072C8C0B0D13812F0C0C800B842F0D0D7538090E78
:20009A00002B5E30892F040C800B842F6000753891019D2F040C800B842F60007538900130
:2000BA006230002F9101002F90010412840F142940182A30820F0428820B0310820F002A63
:1000DA002930830F042A29300213031329307A00A6
:200102000002000200020002000200020002000200020002000200020002000200020002BD
:2001220000020002000200020002000200020002FF027F0200020002FF027F0200020002A1
:2001420060023002000200023002600200020002300260020002000230026002000200023D
:200162007002700200020002E0023F020002000280020F02000200020002000200020002CF
:200182000002000200020002F0027F0206020002F0027F0206020002000200020002000253
:2001A200000200020002000280020F0200020002E0023F020002000270027002000200028F
:2001C20030026002000200023002600200020002300260020002000270027002000200026D
:2001E200E0023F020002000280020F020002000200020002000200020002600200020002CF
:20020200E002FF0203020002F002FF020302000230026002000200023002600200020002C8
:2002220000020002000200020002000200020002F0027F0200020002F0027F0200020002BE
:2002420000023002000200020002600200020002000260020002000200026002000200022C
:20026200030200020002000203020002000200020302000200020002030200020002000250
:20028200030200020002000203020002000200020302000200020002030200020002000230
:2002A200030200020002000203020002000200020302000200020002000200020002000213
:2002C20086020F0200020002E6023F020002000273027002000200023302600200020002CC
:2002E200330260020002000233026002000200026702300200020002FE027F0200020002A2
:20030200FC027F02000200020002000200020002000200020002000280020F0200020002B1
:20032200E0023F02000200027002700200020002300260020002000230026002000200027C
:2003420030026002000200027002700200020002E0023F020002000280020F02000200025D
:2003620000020002000200020002000200020002000200020002000200020002000200025B
:2003820000020002000200020002000200020002000200020002000200020002000200023B
:2003A2000002000200020002F002FF0207020002F002FF020702000200020C02060200021D
:2003C20000020C020602000200020C020602000200020C020602000200020C0206020002B3
:2003E20000021C02070200020002F802030200020002F002010200020002000200020002CC
:2004020000020002000200020002000200020002F002FF0207020002F002FF0207020002CE
:20042200000218020602000200021802060200020002180206020002000218020602000222
:20044200000218020602000200021802060200020002000206020002000200020002000238
:2004620000020002000200028002010200020002E002E102010200026002F00203020002C4
:200482007002300207020002300218020602000230021802060200023002180206020002A9
:2004A20030020C020602000260020C0207020002E002870203020002C002830201020002B7
:2004C2000002000200020002000200020002000200020002000200020002C002000200023A
:2004E2000002C002000200020002800201020002F002FF0207020002F002FF0207020002AD
:200502000002000200020002000200020002000200020002000200020002000200020002B9
:200522000002000200020002C002780200020002E002F8020702000270029002070200027B
:200542003002300206020002300230020602000230023002060200026002380206020002A9
:20056200E0021F020602000280020F02000200020002000200020002800203020002000242
:20058200800207020002000280021D0200020002800239020002000280026102000200027B
:2005A2008002C10201020002F002FF0203020002F002FF020702000280020102000200026E
:2005C200800201020002000200020002000200020002030200020002000203020002000272
:2005E2000002030200020002000203020002000200020302000200020002030200020002CD
:20060200000200020002000200020002000200028002010200020002E002E1020102000275
:200622006002F0020302000270023002070200023002180206020002300218020602000202
:20064200300218020602000230020C020602000260020C0207020002E0028702030200020B
:20066200C002830201020002000200020002000200020002000200028002FF020002000295
:20068200E002FF020302000270020002070200023002000206020002300200020602000273
:2006A20030020002060200027002000207020002E002FF02030200028002FF02000200020A
:2006C20000020002000200020002000200020002C002E70201020002E002FF02030200026E
:2006E20070023C02070200023002180206020002300218020602000230021802060200023B
:2007020070023C0207020002E002FF0203020002C002E7020102000200020002000200027A
:20072200000200020002000200020002000200020002000200020002000200020002000297
:20074200000200020002000200020002000200020002000200020002000200020002000277
:20076200F002FF0207020002F002FF020702000200020C020602000200020C020602000247
:2007820000020C020602000200020C020602000200020C020602000200021C0207020002DE
:2007A2000002F802030200020002F00201020002000200020002000200020002000200022B
:2007C20000027F02000200028002FF0200020002C002C10201020002600200020302000214
:2007E2007002000207020002300200020602000230020002060200023002000206020002BE
:20080200300200020602000270020002070200026002000203020002C002C1020102000224
:200822008002FF020002000200027F02000200020002000200020002000200020702000291
:200842000002C002070200020002F8020102000200023E0200020002C002070200020002B1
:20086200F0020102000200023002000200020002F002010200020002C0020702000200027D
:2008820000023E02000200020002F802010200020002C00207020002000200020702000231
:2008A200000200020002000200020002000200020002000200020002000200020002000216
:2008C2000002000200020002000200020002000200020002000200020002000200020002F6
:2008E2000002000200020002000200020002000200020002000200020002000200020002D6
:2009020001020202040208021002200240028002180218021102110281028102C002C002E2
:20092200480248020902090290029002410241028802880250025002080210021002010278
:2009420001028002800240024002080208020102100280020102400208028002100240023A
:1800EA008029401A7A3081037A0080137200C201FF28801380037A00D4
:00000001FF
