:020020007B0063
:1000000000000113022F0428FE2C82011D3812303B
:16002400022F800B022F032880171C30002F800300121430113082
:02002200233089
:20003A00F42F8301E42F830100027A00002F9201002F9101002F90010313002F90017B2F29
:20005A00030C800B802F60006F3891018F2F030C800B802F60006F3890010213820F322904
:20007A00401A4330820F0128820B3B30830F132A4930830F01294B3003122A30840B002F3B
:20009A0090017B2F040C800B802F60006F3891018F2F040C800B802F60006F389001021373
:2000BA00820F3229401A6530820F0128820B5D30840F002A6C30840F0128830B2A308412E4
:0400DA004C307A002C
:2000F600180218021102110281028102C002C00248024802090209029002900241024102B2
:2001160088028802500250020802100210020102010280028002400240020802080201023E
:100136001002800201024002080280021002400200
:1800DE008029401A743081037A0080137200C201FF28801380037A00E6
:00000001FF
